:0400000007EF00F016
:0A00080048829DED07F08DEF09F02E
:100800000001000A006400E8031027503A25640044
:050810003E004F000056
:100816009E96C6AEEDD0C69E000E1A6E000E000164
:100826009E6F000E00019F6F120005B2120003C0FA
:100836009EF004C09FF003C0D9FF04C0DAFFDF506A
:10084600196E20EE01F00350D9260450DA22DECFCD
:1008560012F0DDCF13F0060E0326000E0422B80EAA
:10086600031808E1000E0418D8A404D0B20E036ED3
:10087600000E046E05900150031804E1025004189E
:10088600D8B40582C580020E1A6E1200C582020E09
:100896001A6E1200C5AC05D0072A040E38EC0BF010
:1008A6001200D8902430266E2330256E2550C96E4E
:1008B60023A003D00B0E1A6E1200030E1A6E12003E
:1008C600C5AC05D0072A040E38EC0BF01200C58221
:1008D60023C025F024C026F026C025F0266A060E81
:1008E6002516000E2616F00E2510236E2650246EB1
:1008F6002380010E176E020E1A6E12001704D8B46A
:100906001AD012C0D9FF13C0DAFFDECF23F0DDCF35
:1009160024F020EE03F01250D9261350DA22DECF4F
:100926009CF0DDCF9DF020EE02F01250D926135038
:10093600DA22DF50186E23C0C9FF23A003D0050EAC
:100946001A6E1200030E1A6E1200C5AC06D0072AE4
:10095600C59C050E38EC0BF0120018061828D8A412
:100966000ED0060E1226000E1322192E04D0000EEB
:1009760038EC0BF01200C582020E1A6E12009CC0F3
:10098600D9FF9DC0DAFFDF50C96E00019C4B9D2B3D
:100996001200C5AC06D0072A040E38EC0BF0C59C35
:1009A6001200C586080E1A6E1200080E1A6EC5864B
:1009B60012009CC0D9FF9DC0DAFFC9CFDFFF00013E
:1009C6009C4B9D2B010E185ED8B404D0C59A060E1A
:1009D6001A6E03D0C58AE2EC0AF0C5881200000E32
:1009E60038EC0BF01200072A060E38EC0BF012005A
:1009F6001A50000AD8B419D7010AD8B447D7030A3F
:100A0600D8B47CD7010AD8B4A0D7070AD8B4E7D798
:100A1600010AD8B4BED7030AD8B4C7D7010AD8B4D6
:100A2600DED70F0AD8B4C5D7020AD8B433D7010A1D
:100A3600D8B446D7D8D747501FE1100E465CD8B079
:100A46001BD046044710D8B48180104A112A060EDE
:100A56003D6E160E3C6E460EE82EFED73C2EFCD79B
:100A66003D2EFAD700D0464A472A0F0E46184710A1
:100A7600D8A402D081908182475004E1100E465CD2
:100A8600D8A021D047501FE11F0E465CD8B01BD01E
:100A9600020E1024106E000E1120116E060E3D6E11
:100AA600160E3C6E460EE82EFED73C2EFCD73D2E8B
:100AB600FAD700D0464A472A1E0E46184710D8A431
:100AC60002D081928184475004E11F0E465CD8A073
:100AD60021D047501FE12E0E465CD8B01BD0030E26
:100AE6001024106E000E1120116E060E3D6E160EAD
:100AF6003C6E460EE82EFED73C2EFCD73D2EFAD78E
:100B060000D0464A472A2D0E46184710D8A402D0D0
:100B160081948186475004E12E0E465CD8A021D0F0
:100B260047501FE13D0E465CD8B01BD0040E102482
:100B3600106E000E1120116E060E3D6E160E3C6EE6
:100B4600460EE82EFED73C2EFCD73D2EFAD700D017
:100B5600464A472A3C0E46184710D8A402D081962A
:100B66008188475004E13D0E465CD8A021D047500D
:100B76001FE14C0E465CD8B01BD0050E1024106E3B
:100B8600000E1120116E060E3D6E160E3C6E460EC0
:100B9600E82EFED73C2EFCD73D2EFAD700D0464A8B
:100BA600472A4B0E46184710D8A402D08198818A4E
:100BB600475004E14C0E465CD8A01200475020E195
:100BC6005B0E465CD8B01200060E1024106E000EA6
:100BD6001120116E060E3D6E160E3C6E460EE82E68
:100BE600FED73C2EFCD73D2EFAD700D0464A472AE0
:100BF6005A0E46184710D8A41200819A818C12000A
:100C060012009FD02104D8A494D0000E216E000EAD
:100C1600BBEC0AF085EC0AF071EC0AF0020E00015A
:100C2600A15DD8A03DD0000E0F6E400E0E6E0CECEE
:100C36000AF00009D8A4FBD70E5064EC09F00CECBE
:100C46000AF00009D8A4FBD7100E3D6E080E3E6EC2
:100C560029EC0AF01EEC05F044504510D8B404D037
:100C66004406D8A0450604D0000E456E0F0E446E0D
:100C7600435004E1410E425CD8A004D04206D8A0FD
:100C8600430604D0000E436E4F0E426E42500E18BD
:100C960050E143500F18D8A44CD050EC08F049D07E
:100CA600000E0F6E000E0E6E0CEC0AF00009D8A4B2
:100CB600FBD70E5064EC09F0BD0E0001C66F000EA6
:100CC6000001C76F100E0001C86F080E0001C96F42
:100CD600DEEC06F00CEC0AF00009D8A4FBD7BD0E3A
:100CE6003D6E000E3E6E43EC0AF01EEC05F04450DD
:100CF6004510D8B404D04406D8A0450604D0000E4A
:100D0600456E0F0E446E435004E1410E425CD8A07E
:100D160004D04206D8A0430604D0000E436E4F0E00
:100D2600426E44500E1805E145500F18D8B450ECE9
:100D360008F00CEC0AF00009D8A4FBD7010ECFECA2
:100D460009F0475004E15B0E465CD8A05BD70CEC7B
:100D56000AF00009D8A4FBD74B0E64EC09F0B80ED4
:100D66000001C66F000E0001C76F0B0E0001C86FB1
:100D7600080E0001C96F10C0CAF011C0CBF0DEEC3E
:100D860006F00CEC0AF00009D8A4FBD7B80E3D6EAD
:100D9600000E3E6E43EC0AF01F0E0001D46F710E7A
:100DA6000001D36F1E0EE82EFED7D32FFCD7D42F0B
:100DB600FAD700F01200CA0E0001CC6F000E000137
:100DC600CD6FA3D0250E0001D219D8B40AD0C6C063
:100DD600D9FFC7C0DAFFD2C0DFFF0001C64BC72B61
:100DE60094D0000E0001CE6FC8C0F6FFC9C0F7FF51
:100DF6000001C84BC92B0800F5CFD2F00001D25133
:100E0600000AD8B490D0640AD8B403D00D0AD8A486
:100E16007CD0CCC0D9FFCDC0DAFFDECFD0F0DDCF9D
:100E2600D1F0020E0001CC27000ECD230001D1AF78
:100E360008D0030E0001CE130001D06DD11FD8B02B
:100E4600D12B010E0001D26F050E0001D219D8B4C4
:100E560016D00001D251020D010EF324F66E080ED3
:100E6600F420F76E0900F5500001D05D0900F55039
:100E76000001D159D8A003D00001D22BE5D7CEC0AE
:100E860041F0030E4116D8B409D0C6C0D9FFC7C079
:100E9600DAFF2D0EDF6E0001C64BC72BD2C0CFF096
:100EA6002ED00001CF51020D010EF324F66E080E6E
:100EB600F420F76E0900F5CF3EF00A00F5CF3FF0BB
:100EC600D0C03CF0D1C03DF007EC09F03CC0C2F008
:100ED6003DC0C3F0000E0001C56F0A0EC46F36ECAC
:100EE60009F00001C251300F0001D26FC6C0D9FF10
:100EF600C7C0DAFFD2C0DFFF0001C64BC72B000117
:100F0600CF070001CF29D8A4CCD7C8C0F6FFC9C0E7
:100F1600F7FF0001C84BC92B0800F5CFD2F000013E
:100F2600D251D8A44FD7C6C0D9FFC7C0DAFF000E2A
:100F3600DF6E12000600FACF29F0FBCF2AF0E9CFC8
:100F46002BF0EACF2CF0E1CF2DF0E2CF2EF0D9CF67
:100F56002FF0DACF30F0F3CF31F0F4CF32F0F6CF16
:100F660033F0F7CF34F0F8CF35F0F5CF36F048C090
:100F760037F049C038F04AC039F04BC03AF09DBC52
:100F86009EAC04D021EC0BF09E9C61D0F2BAF2A488
:100F960004D042EC0BF0F2945AD0A0B8A1A804D029
:100FA60047EC0BF0A19853D0A0B6A1A604D048EC0C
:100FB6000BF0A1964CD09DB69EA604D00BEC04F087
:100FC6009E9645D09DB89EA804D05AEC0AF09E98ED
:100FD6003ED09DBA9EAA04D02FEC0BF09E9A37D035
:100FE6009DB09EA004D041EC0BF09E9030D0F2B69E
:100FF600F2A006D043EC0BF081CF3BF0F29027D065
:10100600F2B8F2A204D046EC0BF0F29220D0F0B681
:10101600F0A004D045EC0BF0F09019D0F0B8F0A297
:1010260004D044EC0BF0F09212D0A0B0A1A002D0F4
:10103600A1900DD0A0B2A1A204D099EC0AF0A19281
:1010460006D09DB29EA203D040EC0BF09E923AC011
:101056004BF039C04AF038C049F037C048F036C0C6
:10106600F5FF35C0F8FF34C0F7FF33C0F6FF32C0D6
:10107600F4FF31C0F3FF30C0DAFF2FC0D9FF2EC016
:10108600E2FF2DC0E1FF2CC0EAFF2BC0E9FF2AC01A
:10109600FBFF29C0FAFF48921100475007E1100EE6
:1010A600465CD8B003D01006D8A01106475004E11C
:1010B600100E465CD8A00CD047500AE11F0E465CC5
:1010C600D8B006D0FE0E1024106EFF0E1120116E41
:1010D600475004E11F0E465CD8A00CD047500AE1E9
:1010E6002E0E465CD8B006D0FD0E1024106EFF0EF4
:1010F6001120116E475004E12E0E465CD8A00CD08C
:1011060047500AE13D0E465CD8B006D0FC0E1024CE
:10111600106EFF0E1120116E475004E13D0E465C25
:10112600D8A00CD047500AE14C0E465CD8B006D089
:10113600FB0E1024106EFF0E1120116E475004E1B5
:101146004C0E465CD8A0120047500BE15B0E465C85
:10115600D8B01200FA0E1024106EFF0E1120116E78
:1011660012001200406EF00E8316F00E9516959A38
:101176009598959C8C9A8C988C9C18EC0BF0300E5C
:10118600CFEC09F0050EF9EC0AF0300ECFEC09F0C1
:10119600010EF9EC0AF0320ECFEC09F00CEC0AF075
:1011A6000009D8A4FBD70CEC0AF00009D8A4FBD799
:1011B6004050CFEC09F00CEC0AF00009D8A4FBD79C
:1011C600080ECFEC09F00CEC0AF00009D8A4FBD706
:1011D6000F0ECFEC09F00CEC0AF00009D8A4FBD7EF
:1011E600010ECFEC09F00CEC0AF00009D8A4FBD7ED
:1011F600040ECFEC09F00CEC0AF00009D8A4FBD7DA
:10120600800E64EC09F01200000E0001C16F000EA2
:10121600C06F3E503F10D8B421D0010E0001BF6F01
:1012260005D0D8903E363F360001BF2B3FAEF9D7EA
:101236000001D890C037C1373E503C5C3F503D5806
:10124600D8A006D03E503C5E3F503D5A0001C081BA
:10125600D8903F323E320001BF2FEAD7C0C03CF0E3
:10126600C1C03DF012000001C4510001C511D8B43F
:1012760023D0010E406E05D00001D890C437C53783
:10128600402A0001C5AFF8D70001C4510001C25D74
:101296000001C5510001C359D8A008D00001C451AE
:1012A6000001C25F0001C5510001C35B0001D89077
:1012B600C533C433402EE8D7C2C0C2F0C3C0C3F0A2
:1012C60012003F6EF00E9516F00E83163F503C6EE0
:1012D6003D6A3C8E040E3E6E3D343D323C323E2E1F
:1012E600FBD73C500F0B83128C9A8C9834EC0BF086
:1012F6008C8C34EC0BF08C9CF00E83163F500F0B4D
:10130600831234EC0BF08C8C34EC0BF08C9C0F0EAF
:1013160095121200780EF66E160EF76E000EF86E27
:1013260000EE42F010EE06F00900F5CFEEFFE550B4
:10133600E150FAE100EE60F05F0EEE6AE806FDE1CC
:1013460000EE01F0240EEE6AE806FDE148904892B0
:10135600000EF86E000104EF0BF03C6EF00E9516D1
:10136600F00E83163C380F0B0F0B83128C888C9A69
:1013760034EC0BF08C8C34EC0BF08C9CF00E83165A
:101386003C500F0B831234EC0BF08C8C34EC0BF0CE
:101396008C9C0F0E951212003C6EF00E9516F00EF8
:1013A60083163C380F0B0F0B83128C9A8C9834ECF7
:1013B6000BF08C8C34EC0BF08C9CF00E83163C50AE
:1013C6000F0B831234EC0BF08C8C34EC0BF08C9CF2
:1013D6000F0E95121200959E8C8E280EB5EC08F015
:1013E6000CEC0AF00009D8A4FBD70F0ECFEC09F0DD
:1013F6000CEC0AF00009D8A4FBD7060ECFEC09F0D6
:101406000CEC0AF00009D8A4FBD7000E64EC09F036
:1014160012008C8A8C9834EC0BF08C8C34EC0BF02C
:1014260083A60AD08C9C34EC0BF08C8C34EC0BF03D
:101436008C9C8C9A010E12008C9C34EC0BF08C8CDC
:1014460034EC0BF08C9C8C9A000E12000FD00CEC36
:101456000AF00009D8A4FBD73DC0F6FF3EC0F7FF4F
:101466000800F550B0EC09F03D4A3E2A3DC0F6FFB3
:101476003EC0F7FF0800F5500009D8B41200E7D7C0
:101486000ED00CEC0AF00009D8A4FBD73DC0D9FF5A
:101496003EC0DAFFDF50B0EC09F03D4A3E2A3DC0BF
:1014A600D9FF3EC0DAFFDF50D8B41200EAD7080EE3
:1014B6001E6012D01F50010D920EF324D96E000E3D
:1014C600F420DA6EDF50AD6E1F2A070E1F6402D0BD
:1014D600000E1F6E1E2A12009D9812000CEC0AF0D8
:1014E6000009D8A4FBD7425064EC09F00CEC0AF0D2
:1014F6000009D8A4FBD7120E3D6E080E3E6E29ECED
:101506000AF012000CEC0AF00009D8A4FBD74450EC
:1015160064EC09F00CEC0AF00009D8A4FBD7120E13
:101526003D6E080E3E6E29EC0AF012000950B36EAD
:1015360008C0B2FF14501510D8B4120001D812001A
:101546000500FA6E1450FD6E1550FE6EF850FF6ED3
:10155600FA501200D09E9F9CF194A298A2969F9654
:101566009F989F9A9F90F190A290A2929F921200AC
:101576003D6E3DC03CF03C463C46C2503C18C30B59
:101586003C18C26EC280C2821200928093909392DF
:10159600939493969398939A939CC150F00B0E094B
:1015A600C16E1200010EC26ECF0EC116BA0EC06E0B
:1015B600000EC36E000EC46E9E9C9D8C1200060E1D
:1015C6001226000E1322192E03D0040E1A6E1200D4
:1015D600010E1A6E1200ADEC0AF0C8EC0AF02AEC05
:1015E6000BF0EEEC09F0D5EC0AF012003D6E0D0E94
:1015F6003C6EFC0EE82EFED73C2EFCD73D2EF7D7D0
:101606001200EEEC0AF0F28EF28C000EBBEC0AF041
:1016160004EC06F0FDD7C450286E276AC350272471
:10162600256E000E2820266E1200750E3C6EE10E09
:10163600E82EFED73C2EFCD700F012000EEC0BF085
:1016460025C0A0F026C0A1F0010E216E1200600E8A
:10165600D36E000E9B6E1200ABA21200AB9EAB8E39
:101666001200060EE82EFED71200C584000E1A6E72
:1016760012005C0014000100120012001200120099
:0C168600120012001200120012001200EC
:020000040020DA
:08000000FFFFFFFFFFFFFFFF00
:020000040030CA
:0E000000340E181EFF8080FF0FC00FE00F406F
:00000001FF
