:020000040000FA
:0400000012EF08F003
:1008000000FC049805ED05A7067707F403700400C3
:1008100053EF06F009C013F00AC014F0BBEC07F068
:100820000D0E186EFC0EE82EFED7182EFCD709C050
:1008300013F00AC014F0BBEC07F00D0E186EFC0E9E
:10084000E82EFED7182EFCD709C013F00AC014F00A
:10085000BBEC07F00D0E186EFC0EE82EFED7182E1E
:10086000FCD709C013F00AC014F058EC07F00D0EC5
:10087000186EFC0EE82EFED7182EFCD709C013F018
:100880000AC014F035EC07F009C013F00AC014F0E8
:10089000BBEC07F00D0E186EFC0EE82EFED7182EDE
:1008A000FCD709C013F00AC014F0BBEC07F00D0E22
:1008B000186EFC0EE82EFED7182EFCD709C013F0D8
:1008C0000AC014F0BBEC07F00D0E186EFC0EE82EFB
:1008D000FED7182EFCD709C013F00AC014F058EC4C
:1008E00007F00D0E186EFC0EE82EFED7182EFCD762
:1008F00009C013F00AC014F035EC07F009C013F07A
:100900000AC014F058EC07F00D0E186EFC0EE82E1D
:10091000FED7182EFCD709C013F00AC014F058EC0B
:1009200007F00D0E186EFC0EE82EFED7182EFCD721
:1009300009C013F00AC014F0D8EC07F00D0E186EC1
:10094000FC0EE82EFED7182EFCD709C013F00AC003
:1009500014F0D8EC07F00D0E186EFC0EE82EFED742
:10096000182EFCD709C013F00AC014F0F5EC07F0FC
:100970000D0E186EFC0EE82EFED7182EFCD709C0FF
:1009800013F00AC014F0F5EC07F00D0E186EFC0E13
:10099000E82EFED7182EFCD709C013F00AC014F0B9
:1009A000BBEC07F009C013F00AC014F0BBEC07F071
:1009B00009C013F00AC014F0BBEC07F009C013F033
:1009C0000AC014F0BBEC07F009C013F00AC014F021
:1009D000D8EC07F009C013F00AC014F09CEC07F043
:1009E00009C013F00AC014F0BBEC07F009C013F003
:1009F0000AC014F0BBEC07F009C013F00AC014F0F1
:100A0000BBEC07F009C013F00AC014F0D8EC07F0F3
:100A100009C013F00AC014F09CEC07F009C013F0F1
:100A20000AC014F0BBEC07F009C013F00AC014F0C0
:100A3000F5EC07F009C013F00AC014F0BBEC07F0A6
:100A400009C013F00AC014F07BEC07F009C013F0E2
:100A50000AC014F035EC07F009C013F00AC014F016
:100A60009CEC07F00D0E186EFC0EE82EFED7182E2B
:100A7000FCD709C013F00AC014F058EC07F071EF6E
:100A800006F009C013F00AC014F09CEC07F009C08E
:100A900013F00AC014F09CEC07F009C013F00AC070
:100AA00014F0BBEC07F0000E146E1E0E136EBBECC0
:100AB00007F009C013F00AC014F07BEC07F009C07E
:100AC00013F00AC014F0BBEC07F009C013F00AC021
:100AD00014F0F5EC07F0000E146E1E0E136E7BEC96
:100AE00007F009C013F00AC014F0BBEC07F009C00E
:100AF00013F00AC014F0F5EC07F009C013F00AC0B7
:100B000014F0D8EC07F0000E146E1E0E136EBBEC42
:100B100007F009C013F00AC014F0F5EC07F009C0A3
:100B200013F00AC014F0D8EC07F005C013F006C0AB
:100B300014F058EC07F009C013F00AC014F058EC98
:100B400007F009C013F00AC014F058EC07F009C010
:100B500013F00AC014F0D8EC07F0000E146E1E0E4D
:100B6000136EF5EC07F009C013F00AC014F0BBECEB
:100B700007F009C013F00AC014F07BEC07F009C0BD
:100B800013F00AC014F0F5EC07F009C013F00AC026
:100B900014F0BBEC07F009C013F00AC014F07BECB2
:100BA00007F009C013F00AC014F0BBEC07F009C04D
:100BB00013F00AC014F0F5EC07F009C013F00AC0F6
:100BC00014F0D8EC07F009C013F00AC014F058EC88
:100BD00007F009C013F00AC014F0F5EC07F005C0E7
:100BE00013F006C014F0BBEC07F009C013F00AC004
:100BF00014F09CEC07F071EF06F009C013F00AC086
:100C000014F058EC07F009C013F00AC014F058ECC7
:100C100007F009C013F00AC014F0BBEC07F009C0DC
:100C200013F00AC014F0BBEC07F009C013F00AC0BF
:100C300014F0F5EC07F009C013F00AC014F0F5EC5D
:100C400007F005C013F006C014F0BBEC07F009C0B4
:100C500013F00AC014F07BEC07F009C013F00AC0CF
:100C600014F07BEC07F009C013F00AC014F035EC67
:100C700007F009C013F00AC014F035EC07F009C002
:100C800013F00AC014F09CEC07F009C013F00AC07E
:100C900014F09CEC07F005C013F006C014F058ECFB
:100CA00007F071EF06F016C018F017C019F01950D0
:100CB000000AD8B45EEF06F071EF06F01850010A92
:100CC000D8B40AEF04F0030AD8B441EF05F0010AE2
:100CD000D8B4FDEF05F0070AD8B471EF06F071EF54
:100CE00006F01200FE0E936E0F0EC11281A27BEF72
:100CF00006F07DEF06F093EF06F0320E096E000E5F
:100D00000A6E000E0B6E000E0C6E0A0E056E000EC3
:100D1000066E000E076E000E086E000E176E030EB4
:100D2000166E08EC04F081A498EF06F09AEF06F036
:100D3000B0EF06F02D0E096E000E0A6E000E0B6E5F
:100D4000000E0C6E090E056E000E066E000E076E8C
:100D5000000E086E000E176E030E166E08EC04F0FF
:100D600081A6B5EF06F0B7EF06F0CDEF06F0280E3E
:100D7000096E000E0A6E000E0B6E000E0C6E080E51
:100D8000056E000E066E000E076E000E086E000E59
:100D9000176E030E166E08EC04F081A8D2EF06F071
:100DA000D4EF06F0EAEF06F0230E096E000E0A6E8D
:100DB000000E0B6E000E0C6E070E056E000E066E1A
:100DC000000E076E000E086E000E176E030E166EF4
:100DD00008EC04F081AAEFEF06F0F1EF06F007EF60
:100DE00007F01E0E096E000E0A6E000E0B6E000E4E
:100DF0000C6E060E056E000E066E000E076E000EDF
:100E0000086E000E176E030E166E08EC04F081AC2F
:100E10000CEF07F00EEF07F024EF07F0190E096E44
:100E2000000E0A6E000E0B6E000E0C6E050E056EA7
:100E3000000E066E000E076E000E086E000E176E96
:100E4000030E166E08EC04F081AE29EF07F02BEFCD
:100E500007F076EF06F0000E176E040E166E08EC23
:100E600004F076EF06F000EF00F08180D80E00D09D
:100E700000D0E82EFCD700D000D000F08190D80E32
:100E800000D000D0E82EFCD700D000D000F0130630
:100E9000D8A0140614BE57EF07F0145006E113044F
:100EA000D8B055EF07F057EF07F035EF07F0120015
:100EB0008180030E156E7A0EE82EFED7152EFCD714
:100EC00000F08190030E156E7A0EE82EFED7152ED7
:100ED000FCD700F01306D8A0140614BE7AEF07F072
:100EE000145006E11304D8B078EF07F07AEF07F05A
:100EF00058EF07F012008180CC0E00D000D0E82E11
:100F0000FCD700D000D08190CC0E00D000D0E82ECD
:100F1000FCD700D000D01306D8A0140614BE9BEF57
:100F200007F0145006E11304D8B099EF07F09BEFD7
:100F300007F07BEF07F012008180F30E00D000D0A5
:100F4000E82EFCD700D08190F30E00D000D0E82E20
:100F5000FCD700D01306D8A0140614BEBAEF07F0D1
:100F6000145006E11304D8B0B8EF07F0BAEF07F059
:100F70009CEF07F012008180FF0E00D0E82EFDD715
:100F800000F08190FF0E00D0E82EFDD700F0130690
:100F9000D8A0140614BED7EF07F0145006E11304CE
:100FA000D8B0D5EF07F0D7EF07F0BBEF07F012008E
:100FB0008180CA0E00D0E82EFDD700D08190CA0EE5
:100FC00000D0E82EFDD700D01306D8A0140614BE1A
:100FD000F4EF07F0145006E11304D8B0F2EF07F075
:100FE000F4EF07F0D8EF07F012008180E30E00D095
:100FF000E82EFDD700F08190E30E00D0E82EFDD75B
:1010000000F01306D8A0140614BE11EF08F0145017
:1010100006E11304D8B00FEF08F011EF08F0F5EF78
:1010200007F012004E0EF66E100EF76E000EF86E00
:1010300000EE01F010EE12F00900F5CFEEFFE550E2
:10104000E150FAE1000EF86E000172EF06F01400B4
:1010500000000A0000003200000006001E000F0021
:020000040020DA
:08000000FFFFFFFFFFFFFFFF00
:020000040030CA
:0E000000000B1F1EFF8385FF0FC00FE00F4097
:00000001FF
